{
  "_format": "hh-sol-artifact-1",
  "contractName": "WarrantyManager",
  "sourceName": "contracts/WarrantyManager.sol",
  "abi": [
    {
      "inputs": [],
      "stateMutability": "nonpayable",
      "type": "constructor"
    },
    {
      "inputs": [],
      "name": "adminResetOrders",
      "outputs": [],
      "stateMutability": "nonpayable",
      "type": "function"
    },
    {
      "inputs": [
        {
          "internalType": "uint256",
          "name": "_productId",
          "type": "uint256"
        },
        {
          "internalType": "uint256",
          "name": "_amountVND",
          "type": "uint256"
        }
      ],
      "name": "createOrder",
      "outputs": [],
      "stateMutability": "nonpayable",
      "type": "function"
    },
    {
      "inputs": [
        {
          "internalType": "uint256",
          "name": "_index",
          "type": "uint256"
        }
      ],
      "name": "getOrderByIndex",
      "outputs": [
        {
          "internalType": "uint256",
          "name": "",
          "type": "uint256"
        },
        {
          "internalType": "uint256",
          "name": "",
          "type": "uint256"
        },
        {
          "internalType": "uint256",
          "name": "",
          "type": "uint256"
        },
        {
          "internalType": "address",
          "name": "",
          "type": "address"
        },
        {
          "internalType": "uint256",
          "name": "",
          "type": "uint256"
        }
      ],
      "stateMutability": "view",
      "type": "function"
    },
    {
      "inputs": [],
      "name": "orderCount",
      "outputs": [
        {
          "internalType": "uint256",
          "name": "",
          "type": "uint256"
        }
      ],
      "stateMutability": "view",
      "type": "function"
    },
    {
      "inputs": [],
      "name": "owner",
      "outputs": [
        {
          "internalType": "address",
          "name": "",
          "type": "address"
        }
      ],
      "stateMutability": "view",
      "type": "function"
    }
  ],
  "bytecode": "0x608060405234801561001057600080fd5b50336000806101000a81548173ffffffffffffffffffffffffffffffffffffffff021916908373ffffffffffffffffffffffffffffffffffffffff160217905550610615806100606000396000f3fe608060405234801561001057600080fd5b50600436106100575760003560e01c80632453ffa81461005c57806379109baa1461007a5780638da5cb5b1461009657806396da36c8146100b4578063dabe8a71146100be575b600080fd5b6100646100f2565b6040516100719190610383565b60405180910390f35b610094600480360381019061008f91906103cf565b6100f8565b005b61009e6101da565b6040516100ab9190610450565b60405180910390f35b6100bc6101fe565b005b6100d860048036038101906100d3919061046b565b610296565b6040516100e9959493929190610498565b60405180910390f35b60015481565b6001600081548092919061010b9061051a565b91905055506040518060a0016040528060015481526020018381526020018281526020013373ffffffffffffffffffffffffffffffffffffffff1681526020014281525060026000600154815260200190815260200160002060008201518160000155602082015181600101556040820151816002015560608201518160030160006101000a81548173ffffffffffffffffffffffffffffffffffffffff021916908373ffffffffffffffffffffffffffffffffffffffff160217905550608082015181600401559050505050565b60008054906101000a900473ffffffffffffffffffffffffffffffffffffffff1681565b60008054906101000a900473ffffffffffffffffffffffffffffffffffffffff1673ffffffffffffffffffffffffffffffffffffffff163373ffffffffffffffffffffffffffffffffffffffff161461028c576040517f08c379a0000000000000000000000000000000000000000000000000000000008152600401610283906105bf565b60405180910390fd5b6000600181905550565b600080600080600080600260008881526020019081526020016000206040518060a00160405290816000820154815260200160018201548152602001600282015481526020016003820160009054906101000a900473ffffffffffffffffffffffffffffffffffffffff1673ffffffffffffffffffffffffffffffffffffffff1673ffffffffffffffffffffffffffffffffffffffff168152602001600482015481525050905080600001518160200151826040015183606001518460800151955095509550955095505091939590929450565b6000819050919050565b61037d8161036a565b82525050565b60006020820190506103986000830184610374565b92915050565b600080fd5b6103ac8161036a565b81146103b757600080fd5b50565b6000813590506103c9816103a3565b92915050565b600080604083850312156103e6576103e561039e565b5b60006103f4858286016103ba565b9250506020610405858286016103ba565b9150509250929050565b600073ffffffffffffffffffffffffffffffffffffffff82169050919050565b600061043a8261040f565b9050919050565b61044a8161042f565b82525050565b60006020820190506104656000830184610441565b92915050565b6000602082840312156104815761048061039e565b5b600061048f848285016103ba565b91505092915050565b600060a0820190506104ad6000830188610374565b6104ba6020830187610374565b6104c76040830186610374565b6104d46060830185610441565b6104e16080830184610374565b9695505050505050565b7f4e487b7100000000000000000000000000000000000000000000000000000000600052601160045260246000fd5b60006105258261036a565b91507fffffffffffffffffffffffffffffffffffffffffffffffffffffffffffffffff8203610557576105566104eb565b5b600182019050919050565b600082825260208201905092915050565b7f4f6e6c792061646d696e00000000000000000000000000000000000000000000600082015250565b60006105a9600a83610562565b91506105b482610573565b602082019050919050565b600060208201905081810360008301526105d88161059c565b905091905056fea2646970667358221220ae625f49455611842fbb23602bbab14a9f5fecf181e99dd89efb8febb4f10d3164736f6c63430008140033",
  "linkReferences": {},
  "deployedLinkReferences": {}
}