{
  "_format": "hh-sol-artifact-1",
  "contractName": "ElectronicsStore",
  "sourceName": "contracts/ElectronicsStore.sol",
  "abi": [
    {
      "inputs": [],
      "stateMutability": "nonpayable",
      "type": "constructor"
    },
    {
      "anonymous": false,
      "inputs": [
        {
          "indexed": false,
          "internalType": "uint256",
          "name": "orderId",
          "type": "uint256"
        },
        {
          "indexed": false,
          "internalType": "uint256",
          "name": "productId",
          "type": "uint256"
        },
        {
          "indexed": false,
          "internalType": "uint256",
          "name": "amountVND",
          "type": "uint256"
        },
        {
          "indexed": false,
          "internalType": "address",
          "name": "buyer",
          "type": "address"
        },
        {
          "indexed": false,
          "internalType": "string",
          "name": "offchainTx",
          "type": "string"
        }
      ],
      "name": "OrderRecorded",
      "type": "event"
    },
    {
      "inputs": [],
      "name": "orderCount",
      "outputs": [
        {
          "internalType": "uint256",
          "name": "",
          "type": "uint256"
        }
      ],
      "stateMutability": "view",
      "type": "function"
    },
    {
      "inputs": [
        {
          "internalType": "uint256",
          "name": "",
          "type": "uint256"
        }
      ],
      "name": "orders",
      "outputs": [
        {
          "internalType": "uint256",
          "name": "orderId",
          "type": "uint256"
        },
        {
          "internalType": "uint256",
          "name": "productId",
          "type": "uint256"
        },
        {
          "internalType": "uint256",
          "name": "amountVND",
          "type": "uint256"
        },
        {
          "internalType": "address",
          "name": "buyer",
          "type": "address"
        },
        {
          "internalType": "string",
          "name": "offchainTx",
          "type": "string"
        },
        {
          "internalType": "uint256",
          "name": "createdAt",
          "type": "uint256"
        }
      ],
      "stateMutability": "view",
      "type": "function"
    },
    {
      "inputs": [],
      "name": "owner",
      "outputs": [
        {
          "internalType": "address",
          "name": "",
          "type": "address"
        }
      ],
      "stateMutability": "view",
      "type": "function"
    },
    {
      "inputs": [
        {
          "internalType": "uint256",
          "name": "productId",
          "type": "uint256"
        },
        {
          "internalType": "uint256",
          "name": "amountVND",
          "type": "uint256"
        },
        {
          "internalType": "address",
          "name": "buyer",
          "type": "address"
        },
        {
          "internalType": "string",
          "name": "offchainTx",
          "type": "string"
        }
      ],
      "name": "recordOrder",
      "outputs": [],
      "stateMutability": "nonpayable",
      "type": "function"
    }
  ],
  "bytecode": "0x608060405234801561001057600080fd5b50336000806101000a81548173ffffffffffffffffffffffffffffffffffffffff021916908373ffffffffffffffffffffffffffffffffffffffff160217905550610be5806100606000396000f3fe608060405234801561001057600080fd5b506004361061004c5760003560e01c80631a5a4d3f146100515780632453ffa81461006d5780638da5cb5b1461008b578063a85c38ef146100a9575b600080fd5b61006b600480360381019061006691906105a9565b6100de565b005b6100756102ad565b604051610082919061063b565b60405180910390f35b6100936102b3565b6040516100a09190610665565b60405180910390f35b6100c360048036038101906100be9190610680565b6102d7565b6040516100d59695949392919061072c565b60405180910390f35b60008054906101000a900473ffffffffffffffffffffffffffffffffffffffff1673ffffffffffffffffffffffffffffffffffffffff163373ffffffffffffffffffffffffffffffffffffffff161461016c576040517f08c379a0000000000000000000000000000000000000000000000000000000008152600401610163906107e0565b60405180910390fd5b6001600081548092919061017f9061082f565b91905055506040518060c0016040528060015481526020018581526020018481526020018373ffffffffffffffffffffffffffffffffffffffff1681526020018281526020014281525060026000600154815260200190815260200160002060008201518160000155602082015181600101556040820151816002015560608201518160030160006101000a81548173ffffffffffffffffffffffffffffffffffffffff021916908373ffffffffffffffffffffffffffffffffffffffff16021790555060808201518160040190816102589190610a83565b5060a082015181600501559050507f46e8fa3870bea119fb73e8469727b3a42226962379f50c6a24e460da3ee51a846001548585858560405161029f959493929190610b55565b60405180910390a150505050565b60015481565b60008054906101000a900473ffffffffffffffffffffffffffffffffffffffff1681565b60026020528060005260406000206000915090508060000154908060010154908060020154908060030160009054906101000a900473ffffffffffffffffffffffffffffffffffffffff1690806004018054610332906108a6565b80601f016020809104026020016040519081016040528092919081815260200182805461035e906108a6565b80156103ab5780601f10610380576101008083540402835291602001916103ab565b820191906000526020600020905b81548152906001019060200180831161038e57829003601f168201915b5050505050908060050154905086565b6000604051905090565b600080fd5b600080fd5b6000819050919050565b6103e2816103cf565b81146103ed57600080fd5b50565b6000813590506103ff816103d9565b92915050565b600073ffffffffffffffffffffffffffffffffffffffff82169050919050565b600061043082610405565b9050919050565b61044081610425565b811461044b57600080fd5b50565b60008135905061045d81610437565b92915050565b600080fd5b600080fd5b6000601f19601f8301169050919050565b7f4e487b7100000000000000000000000000000000000000000000000000000000600052604160045260246000fd5b6104b68261046d565b810181811067ffffffffffffffff821117156104d5576104d461047e565b5b80604052505050565b60006104e86103bb565b90506104f482826104ad565b919050565b600067ffffffffffffffff8211156105145761051361047e565b5b61051d8261046d565b9050602081019050919050565b82818337600083830152505050565b600061054c610547846104f9565b6104de565b90508281526020810184848401111561056857610567610468565b5b61057384828561052a565b509392505050565b600082601f8301126105905761058f610463565b5b81356105a0848260208601610539565b91505092915050565b600080600080608085870312156105c3576105c26103c5565b5b60006105d1878288016103f0565b94505060206105e2878288016103f0565b93505060406105f38782880161044e565b925050606085013567ffffffffffffffff811115610614576106136103ca565b5b6106208782880161057b565b91505092959194509250565b610635816103cf565b82525050565b6000602082019050610650600083018461062c565b92915050565b61065f81610425565b82525050565b600060208201905061067a6000830184610656565b92915050565b600060208284031215610696576106956103c5565b5b60006106a4848285016103f0565b91505092915050565b600081519050919050565b600082825260208201905092915050565b60005b838110156106e75780820151818401526020810190506106cc565b60008484015250505050565b60006106fe826106ad565b61070881856106b8565b93506107188185602086016106c9565b6107218161046d565b840191505092915050565b600060c082019050610741600083018961062c565b61074e602083018861062c565b61075b604083018761062c565b6107686060830186610656565b818103608083015261077a81856106f3565b905061078960a083018461062c565b979650505050505050565b7f4f6e6c79206f776e657200000000000000000000000000000000000000000000600082015250565b60006107ca600a836106b8565b91506107d582610794565b602082019050919050565b600060208201905081810360008301526107f9816107bd565b9050919050565b7f4e487b7100000000000000000000000000000000000000000000000000000000600052601160045260246000fd5b600061083a826103cf565b91507fffffffffffffffffffffffffffffffffffffffffffffffffffffffffffffffff820361086c5761086b610800565b5b600182019050919050565b7f4e487b7100000000000000000000000000000000000000000000000000000000600052602260045260246000fd5b600060028204905060018216806108be57607f821691505b6020821081036108d1576108d0610877565b5b50919050565b60008190508160005260206000209050919050565b60006020601f8301049050919050565b600082821b905092915050565b6000600883026109397fffffffffffffffffffffffffffffffffffffffffffffffffffffffffffffffff826108fc565b61094386836108fc565b95508019841693508086168417925050509392505050565b6000819050919050565b600061098061097b610976846103cf565b61095b565b6103cf565b9050919050565b6000819050919050565b61099a83610965565b6109ae6109a682610987565b848454610909565b825550505050565b600090565b6109c36109b6565b6109ce818484610991565b505050565b5b818110156109f2576109e76000826109bb565b6001810190506109d4565b5050565b601f821115610a3757610a08816108d7565b610a11846108ec565b81016020851015610a20578190505b610a34610a2c856108ec565b8301826109d3565b50505b505050565b600082821c905092915050565b6000610a5a60001984600802610a3c565b1980831691505092915050565b6000610a738383610a49565b9150826002028217905092915050565b610a8c826106ad565b67ffffffffffffffff811115610aa557610aa461047e565b5b610aaf82546108a6565b610aba8282856109f6565b600060209050601f831160018114610aed5760008415610adb578287015190505b610ae58582610a67565b865550610b4d565b601f198416610afb866108d7565b60005b82811015610b2357848901518255600182019150602085019450602081019050610afe565b86831015610b405784890151610b3c601f891682610a49565b8355505b6001600288020188555050505b505050505050565b600060a082019050610b6a600083018861062c565b610b77602083018761062c565b610b84604083018661062c565b610b916060830185610656565b8181036080830152610ba381846106f3565b9050969550505050505056fea2646970667358221220d4ad84db70cb5e581e405965102901340c75c808ee4af709b7a68e53314a5e8e64736f6c63430008140033",
  "linkReferences": {},
  "deployedLinkReferences": {}
}